:1000000096C1B0C1AFC169C4ADC1ACC1ABC1AAC1D9
:10001000A9C1C3C2A7C19EC2A5C1A4C1A3C1A2C197
:10002000A1C1A0C19FC100000000000000000000AD
:10003000004F00000000000007000700000000144F
:100040007F147F14000000242A7F2A12000000235E
:1000500013086462000000364955222000000000A9
:1000600005030000000000001C2241000000000009
:1000700041221C0000000014083E08140000000883
:10008000083E080800000050300000000000000892
:100090000808080800000000606000000000002060
:1000A000100804020000003E5149453E0000004097
:1000B000427F40400000004261514946000000215B
:1000C00041454B310000001814127F10000000273A
:1000D000454545390000003C4A49493000000001CF
:1000E0007109050300000036494949360000000641
:1000F0004949291E000000003636000000000000BB
:1001000056360000000000081422410000000014D0
:10011000141414140000000041221408000000020E
:10012000015109060000003E415D551E0000007EA1
:10013000111111117E00007F494949493600003EE6
:10014000414141412200007F414141221C00007F8A
:10015000494949494100007F090909090100003E58
:10016000414949497A00007F080808087F000000DB
:1001700041417F414100002041413F010100000019
:100180007F0814224100007F4040404040000000B2
:100190007F020C027F00007F040810207F00003ED9
:1001A000414141413E00007F090909090600003E26
:1001B000414151215E00007F0909192946000026AE
:1001C000494949493200000001017F010100003F17
:1001D000404040403F0000001F2040201F00000022
:1001E0003F4038403F0000006314081463000000E3
:1001F00007087008070000006151494543000000EE
:100200007F414100000000020408102000000000AF
:1002100041417F0000000004020102040000004090
:1002200040404040000000000003050000000020A6
:10023000545454547800007F4848484830000038EF
:100240004444444444000038444444447F0000385B
:100250005454545418000004047E0505050000049D
:100260004A4A4A4A3C00007F08040404780000001F
:1002700000447D4000000000002040443D0000009C
:10028000007F10284400000000417F400000000073
:100290007C047C04780000007C08040478000000E2
:1002A00038444444380000007C1414140800000052
:1002B000081414147C000000007C080404000000F2
:1002C000485454542400000004043F4444000000F7
:1002D0003C4040207C0000001C2040201C0000000E
:1002E0003C4030403C0000004428102844000000FE
:1002F0000C5050503C0000004464544C4400000832
:1003000036414100000000000077000000000000BE
:100310004141360800000008082A1C0800000008B7
:100320001C2A080800000000000000000000112442
:100330001FBECFE5D4E0DEBFCDBF12E0A0E6B0E047
:10034000E2E4FCE002C005900D92AE35B107D9F7AA
:1003500013E0AEE5B2E001C01D92A23BB107E1F7A8
:1003600033D06DC44DCE81E886B986E087B9089553
:10037000E82F40E050E020E030E068EC70E0E7B9C2
:10038000CB010197F1F7369A349BFECF84B195B13A
:10039000480F591F2F5F3F4F2431310581F7CA01A4
:1003A00064E170E016D4CB01089548EC50E009C038
:1003B00020E137E2FA013197F1F721503040D1F7CF
:1003C00001970097A9F708958FEF87BB84BB81BB86
:1003D00085BB2FEF48EC50E028BB25BB22BB88E84B
:1003E00093E1FA013197F1F70197D9F718BA15BAE5
:1003F00012BA88E893E1FA013197F1F70197D9F73A
:10040000EBCF805290E023E0880F991F2A95E1F707
:100410008A5D9F4F20E030E0FC01E20FF31FE49182
:10042000DB01A20FB31FEC932F5F3F4F2830310544
:1004300099F70895FF920F931F93CF93DF93C1E72E
:10044000D2E08C01FF24FF2031F4F8018081882361
:1004500019F4FF24F39480E2BE01D3DF28960F5FE6
:100460001F4FF2E0C13CDF0771F7DF91CF911F9181
:100470000F91FF90089581E083BF8DEF82BF89B710
:10048000816089BF08959CB180917B008130D9F54E
:100490009A3011F09D3049F590916602992309F444
:1004A00058C01092640211C0A0916402B0E0E091C3
:1004B0006402F0E0EF53FD4F8081A458BF4F8C934E
:1004C000809164028F5F8093640280916402891737
:1004D00058F3E0916402F0E0E458FF4F108281E0AD
:1004E00080936502109266020895809166028F3EA5
:1004F00080F59CB9E82FF0E0EF53FD4F90838F5FBC
:1005000080936602089580915E02882311F5892FF9
:1005100081538F31F0F4809179008917A9F480918B
:100520006002909161028436910520F081E0809311
:100530005E0208958091600290916102019690930D
:100540006102809360020895909379009E5F90937A
:100550007A0008951F920F920FB60F9211242F93D5
:100560003F934F935F936F937F938F939F93AF933B
:10057000BF93EF93FF9387DFFF91EF91BF91AF910F
:100580009F918F917F916F915F914F913F912F91AB
:100590000F900FBE0F901F9018951F920F920FB6DD
:1005A0000F9211242F933F934F935F936F937F93F9
:1005B0008F939F93AF93BF93EF93FF93E091B1031A
:1005C00018BA25B3F0E0EF58FF4F9081892F8F7054
:1005D000207F822B85BB82B3907F8F70982B92BB3C
:1005E000E091B103F0E0EF59FF4F808188BB80912B
:1005F000B1038F5F8093B1038091B1038830A9F478
:100600001092B10380916302813079F480915F028E
:100610008A3031F480917A00C9D110925F0205C00E
:1006200080915F028F5F80935F02809162028F5F93
:1006300080936202FF91EF91BF91AF919F918F9153
:100640007F916F915F914F913F912F910F900FBECE
:100650000F901F9018952F923F924F925F926F923A
:100660007F928F929F92AF92BF92CF92DF92EF9242
:10067000FF920F931F93DF93CF93CDB7DEB72897E9
:100680000FB6F894DEBF0FBECDBFAA24BB243E0137
:100690000894611C711C59E0252E312C2C0E3D1E36
:1006A00040ED442E47E0542E5FC081E0809360000F
:1006B00099249394882435C08191D7018D937D012D
:1006C000A215B305C9F7882081F420E030E0F901D4
:1006D000EF59FF4FD301A20FB31F8C9180832F5F7F
:1006E0003F4F2830310599F719C08AD1982E8823B9
:1006F000A1F0085E1F4F802F880FAAD1982E882363
:1007000061F0809160008F5F80936000F6018191BD
:100710006F01C7D1CE14DF04C9F7F1D19920A1F040
:10072000839480916502882379F4082D10E0F80104
:1007300033E0EE0FFF1F3A95E1F7EA0DFB1DEF588E
:10074000FD4F63017301B8CF2091600004C0C20166
:100750000197F1F72F5F2A30D0F30894A11CB11C48
:10076000F8E0AF16B10429F080916502882309F4FE
:100770009CCF28960FB6F894DEBF0FBECDBFCF91A9
:10078000DF911F910F91FF90EF90DF90CF90BF907E
:10079000AF909F908F907F906F905F904F903F9021
:1007A0002F9008951F93CF93DF93EC0190915C02FB
:1007B00080916000980FFE01E90FF11D118280E227
:1007C00008C0FE01EA0FFB1FA21BB30BAC0FBD1F3D
:1007D0008C918083915080916000282F30E0A92F68
:1007E000B0E0A217B3076CF790E020E205C0FE016D
:1007F000E90FF11D20839F5F809160009817B8F387
:1008000010E004C0CF0116DE26DF1F5FFE01E10FFE
:10081000F11D8081882321F080916502882391F366
:10082000DF91CF911F910895AF92BF92CF92DF9247
:10083000EF92FF920F931F93CF93DF9321E02093CA
:100840006000F8DDCC24DD24BB24B39460E3A62E45
:10085000EE24FF24C114D10481F420E030E0F9013A
:10086000EF59FF4FD901AF58BD4F8C9180832F5F57
:100870003F4F2830310599F719C0C2D08A2DE8D0F2
:10088000B82E882391F0809160008F5F8093600084
:1008900087010F581D4FC0E0D0E0F80181918F0112
:1008A00000D12196C830D105C1F729D1F2E0AF0EB1
:1008B00088E090E0E80EF91EBB2021F00894C11CEE
:1008C000D11CC8CFDF91CF911F910F91FF90EF9076
:1008D000DF90CF90BF90AF9008951F920F920FB608
:1008E0000F9211242F933F938F939F9380916802CF
:1008F000882351F18091690281508093690280912F
:100900006902882309F520916C0230916D02809173
:100910006C0290916D029695879590936D028093ED
:100920006C0220FF02C0939A01C0939883E08093E9
:10093000690280916A02815080936A0280916A0202
:10094000882311F4109268029F918F913F912F910B
:100950000F900FBE0F901F9018958B9A8A98929ABD
:100960000895FBDF109268028AE080936B02939AED
:1009700014BC99B7906899BF85BD82E283BD089584
:10098000282F90E0822F81702695813029F4809164
:1009900067028F5F809367029F5F993099F780E0CD
:1009A00092E09093700280936F020895982F809147
:1009B00068028823F1F490936E0283E080936902C9
:1009C00080916B0280936A0280916E02D9DF8091E0
:1009D0006E0220916F023091700290E0880F991F93
:1009E000822B932B90936D0280936C0281E0809315
:1009F0006802089581E080B911B8089582B9089518
:100A000090916202965F84EA86BF06C0809162027E
:100A1000981711F420E004C006B607FEF7CF21E0D6
:100A2000809162029817E1F790916202965F06C08A
:100A300080916202981711F420E004C081B1887F90
:100A40008830B1F7809162029817E1F7822F0895FC
:100A500090916202965F83B984E886BF06C0809158
:100A60006202981711F420E004C006B607FEF7CF23
:100A700021E0809162029817E1F790916202965FFF
:100A800006C080916202981711F420E004C081B181
:100A9000887F8831B1F7809162029817E1F7822F41
:100AA000089590916202965F83B984E886BF04C07E
:100AB00080916202981741F006B607FEF9CF04C094
:100AC00080916202981721F081B1887F8832C1F746
:100AD000089584EC86BF06B607FEFDCF81B1887FFE
:100AE0008038E1F783B1089594EC04C096BF06B650
:100AF00007FEFDCF81B1887F8036C1F7089584E974
:100B000086BF9AE02AE106C09150822F8A95F1F7BC
:100B1000992319F006B604FEF7CF0895EF92FF92DD
:100B20000F931F93CF93DF937C01DEDFC0E0D0E013
:100B300087010C0F1D1FCDDFF80181938F012196D6
:100B4000C830D105C1F7F7011086DF91CF911F9111
:100B50000F91FF90EF9008959B01AC01DC01CB0158
:100B600080569940A040B040815A984BA140B04077
:100B700018F023E330E017C060E472E48FE090E007
:100B8000621B730B840B950BF3E0660F771F881FB6
:100B9000991FFA95D1F7E4E0220F331F441F551F28
:100BA000EA95D1F72AD029B930BD089528E92AB9A4
:100BB00026E820BD1BB8D0DF08955F9BFECF8CB127
:100BC00008955D9BFECF8CB980ED97E00197F1F71A
:100BD0000895AA1BBB1B51E107C0AA1FBB1FA61784
:100BE000B70710F0A61BB70B881F991F5A95A9F7D6
:100BF00080959095BC01CD010895A1E21A2EAA1B03
:100C0000BB1BFD010DC0AA1FBB1FEE1FFF1FA217BC
:100C1000B307E407F50720F0A21BB30BE40BF50BB9
:100C2000661F771F881F991F1A9469F76095709542
:100C3000809590959B01AC01BD01CF010895F8947A
:020C4000FFCFE4
:100C42000F3C6EDBDFDFDB6E3C00000000000000CB
:100C520000010204081020408030320168656C6C8B
:100C62006F00000000000000000000000000000013
:100C72000000000000000000000000000000000072
:100C82000000000000000000000000000000000062
:100C92000000000000000000000000000000000052
:100CA2000000000000000000000000000000000042
:100CB2000000000000000000000000000000000032
:100CC2000000000000000000000000000000000022
:100CD2000000000000000000000000000000000012
:100CE2000000000000000000000000000000000002
:100CF20000000000000000000000000000000000F2
:100D020000000000000000000000000000000000E1
:100D120000000000000000000000000000000000D1
:100D220000000000000000000000000000000000C1
:100D320000000000000000000000000000000000B1
:100D42000000000000000000000000004142434497
:100D520045464748494A00000000000000000000E4
:100D62000000000000000000000000000000000081
:100D72000000000000000000000000000000000071
:100D82000000000000000000000000000000000061
:100D92000000000000000000000000000000000051
:100DA2000000000000000000000000000000000041
:100DB2000000000000000000000000000000000031
:100DC2000000000000000000000000000000000021
:100DD2000000000000000000000000000000000011
:100DE2000000000000000000000000000000000001
:100DF20000000000000000000000000000000000F1
:100E020000000000000000000000000000000000E0
:100E120000000000000000000000000000000000D0
:100E220000000000000000000000000000000000C0
:0E0E32000000000000000000000000000A00A8
:00000001FF
